:020000040000fa
:080000000002040000000000f2
:020000040000fa
:100400004f8b2100007f22000001880000000000c7
:100410000c000700a00527000100200011000700c4
:10042000000020000000e000020032000000020096
:10043000000000003c5d0200000000000040da0007
:100440000000fe004440a900208720000000e000da
:100450000300320000002000a00188004440a800f2
:100460000000060091018800800078000000eb0089
:1004700015003700e280400032a0b4009101ba00bc
:10048000e280400032a0b4009102ba00e280400055
:1004900032a0b4000002eb00472bde00f507b200eb
:1004a000602ce10004003a000059eb008301e900f0
:1004b000fdff3e00040037006128e100010032002a
:1004c0000082eb00040007001101ba000200e00006
:1004d000e8ff3a00000006003159ba008301e90044
:1004e0000c0032002159ba008301e90008003200f3
:1004f0000400e00003003a00e280400032a0b400b3
:10050000f5ff370011d9ba008301e900faff3a007c
:100510008100e800e180400032a0b4000000060045
:100520000000000000000000040037000204e000aa
:1005300001003a00000005000000e80010417800ca
:10054000814f5100f9ff3a00000006008001780059
:100550000001780031407800005978000004e00084
:10056000fcff3a000300780000000600040037009a
:100570000204e0000a0032000000e8008100e80008
:1005800010417800914f5100f9ff32000081eb00db
:1005900010407800914f50000400390002003700ed
:1005a0000001eb000100370012002000020078007b
:1005b000000006008001eb0008003700e3427800ed
:1005c00063c278008301e80084cf52000300320048
:1005d0000080eb000400390010000500828f5100fc
:1005e000f6ff3a000000eb000000060080007800f3
:1005f000010037000000e8001004e000fdff3a00b1
:100600000100500000000600ec874700889fbe00f4
:100610008a9fbe008c9fbe008e1f7800f0b79f009f
:1006200081bf9f0082047800000478000100370039
:100630000804e800184778000e00fb00ac00070033
:100640000000e000faff3a00d0c2b300804f57002c
:100650000500320000c0e900804f57000200320060
:1006600000477800010037000804e8000900e000b6
:1006700045003500e18f5400430032004002200065
:10068000808f540040003c000900e0000e00340060
:10069000f08f54001a003a0000c3b300984f1000c6
:1006a00016003a009840900080c7b30080cf5000f9
:1006b0000300320080c5b30080cf50000f003a0025
:1006c0000884e8000e003700a900200000c3b30032
:1006d000984f10000a003a009840900080c7b3007d
:1006e00080cf5000040032008900200080c5b30094
:1006f00080cf500002003a000884e8000901200081
:100700000805780000c3b300010037000a05e800bf
:100710009a4f1000fdff32008a0578006066b8002d
:100720000e003700f07c210000425200c4ef9f0011
:100730006149b9000c00be00880907004fea970024
:100740000401fb00cf91de008b05e800ccb79f00d1
:10075000ddb79f0000064100818649001b00fb00b9
:100760006b0007008000780009017800f07c210010
:100770006e000700000278000000e000e9ff3a0088
:100780008b0f540006003a000fb897000000e000fd
:1007900029003200ffb097000108780026003700da
:1007a0008a805500a07a210060c07c000000fb0018
:1007b00000805000160033004240a9000f003c00aa
:1007c0004fe997000200fb00cf80de0000005600da
:1007d00081805e00800f5600818f5e000700390027
:1007e0006149b900910b07004fb19700dfb1970045
:1007f000820f5000838f5800050032002002200035
:1008000060c588000086eb008086eb00050037009d
:10081000d0c2b300804f570002003a0060061600b5
:10082000e0861e008fb997000300e000030032004d
:100830008b097800010037006066b8000c00be002c
:100840004f0778004f06be004f05be004f04be00a4
:10085000cf00b100000006008001eb00020037006d
:1008600061f079008301e800828f5100fcff3a00bb
:10087000000006000000e000050035007f00e100f8
:1008800002003600f007b10001003a001000050038
:1008900000000500881f780002047800eeff0700c2
:1008a000080040004f047800000006000000fa0035
:1008b000881f7800000478003fb99700ea8157004c
:1008c00080007800a0442000280007008000780005
:1008d0000000e000020035000040eb0000f478006a
:1008e000010078004f0478000080fa000000060044
:1008f0006900e100040035006d00e10003003400f0
:100900000002b100010032000000050010000500e7
:10091000800078001104b100030035009101b1009e
:1009200001003c000050a000000006008001eb0028
:10093000040037008301e80090cf1000040032006b
:100940000000e800828f5100faff3a000000eb003f
:100950000000060050c580000000e00001003200e9
:1009600000000100c08a2100000006006200fa00b9
:10097000889fbe008a9fbe000004be00020578006a
:100980008300780060f92f000f004000b0000700de
:1009900088979f0099979f000000eb00a09f9f0001
:1009a0009a4578000b80fb000000ea00cf04de00cf
:1009b00050c2b30080cf5500020032000904780015
:1009c000010037000904e9000800e0000b003400d2
:1009d0001f909700080178008a0078008f91970097
:1009e0000300010090979f000000e0009300320098
:1009f0002f98970000004400a09f9f000905450024
:100a000050c2b30080cf5500040032000b04e00058
:100a1000e3ff3a002f989700890037000000eb00b1
:100a2000809f9f00f0979f00e0979f00d0979f00c6
:100a3000c0979f00b0979f00c09f9f00090037009c
:100a4000c089210000805000000040000189210081
:100a5000e10078004f98970001007000c09f9f0050
:100a60000a05e8001a4478008800fb00c0892100cc
:100a7000adfe0700800078000000e000f0ff3a00c3
:100a8000a0c2b300804f54000e003a00bf88970008
:100a90000180e900b08f9f0010007800b09f9f0098
:100aa0000000e00005003d000000ea00b09f9f004c
:100ab0004f9897000020a000c09f9f000a05e80003
:100ac00010003700b19f9f0003fd2f00f4ff2700a7
:100ad000080037003f989700840f50000400320050
:100ae0006a00b9000000410003004000b09f9f0071
:100af0000a05e8001a01fb0003004100e90f50005d
:100b0000f4ff3600e0c2b3009a4f10000400320038
:100b10000080eb00909f9f008a0478001c00370043
:100b20008a04e800a0c2b300994f100007003a0001
:100b3000bf8897000180e900b08f9f001000780007
:100b4000909f9f008a84e800110037000000eb00ae
:100b5000909f9f0003fd2f00f4ff2700080037003f
:100b60001f989700840f5000040032006a00b900fb
:100b70000000410003004000909f9f008904e800ae
:100b80001901fb0003004100e90f5000f4ff36009b
:100b9000194478008800fb00208a210062fe0700cb
:100ba0000000e00002003a00004478000100370035
:100bb0008904e800a87f9f0080c6b300804f5400de
:100bc00004003a00994f14000a003a0066405000b1
:100bd00006003700c0c6b300804f540005003a003d
:100be000994f140003003a0065404000a07f9f0029
:100bf0008904e8000905e800cbfb2f008f8545003c
:100c00001901fb0060f92f000f0040000084e8008c
:100c10008b0178008000780008007800db00070076
:100c20000000e00005003a008b0078000800780022
:100c30000c0007000000e00059ff3d000080eb00c1
:100c40004f05be004f04be000080fa000000060001
:100c50000200fa00f1bf9f00010878000080fa004e
:100c6000000006000400fa00889fbe008a9fbe00b4
:100c70008c1f78000004780001067800700890004e
:100c8000f80090000100500088089000010050001a
:100c90009808900001005000a80890000100500042
:100ca000b808900001005000c8089000810550006d
:100cb0000002220090bf9f0000032300a0bf9f00fe
:100cc000081090000028a30018003a000b00e00074
:100cd000160034008b04780009057800e28f540078
:100ce000020036002a002000020037000900e00060
:100cf0000b00340058009000c80190000a017800f1
:100d0000ee80570003000100500498000000e0004e
:100d1000960032006808900000004500600c9800c2
:100d20008a8454004240a900ebff3c007801900007
:100d30000200e0000b00340058009000c801900051
:100d40008c00780003000100500498000000e000cf
:100d50008600320068089000f80090000100400012
:100d6000600c9800880c90000900e0001500340029
:100d700009057800e28f5400020036002a002000a6
:100d8000020037000900e0000b003400580090001a
:100d9000c80190000a017800ec80570003000100b0
:100da000500498000000e0007000320068089000d5
:100db00000004500600c98008a8454004240a9005d
:100dc000ebff3c00180990000200e0000b0034002b
:100dd000e800900058009000c80190000300010056
:100de000500498000000e0006000320068089000a5
:100df0009808900001004000600c9800a80c90003a
:100e00000900e0001500340009057800e28f540065
:100e1000020036002a002000020037000900e0002e
:100e20000b00340058009000c80190000a017800bf
:100e3000ec80570003000100500498000000e0001f
:100e40004a0032006808900000004500600c9800dd
:100e50008a8454004240a900ebff3c00380990000e
:100e60000200e0000d003400e80090001808900037
:100e70008080400058009000c801900003000100ed
:100e8000500498000000e00038003200680890002c
:100e9000b808900001004000600c9800c80c900059
:100ea0000900e0001500340009057800e28f5400c5
:100eb000020036002a002000020037000900e0008e
:100ec0000b00340058009000c80190000a0178001f
:100ed000ec80570003000100500498000000e0007f
:100ee000220032006808900000004500600c980065
:100ef0008a8454004240a900ebff3c000810900097
:100f00000028a3001b0032000b00e0001900340091
:100f10008b04780009057800e28f54000200360047
:100f20002a002000020037000900e0000b00340016
:100f300058009000c80190000a017800ee80570028
:100f400003000100500498000000e0000700320098
:100f50006808900000004500600c98008a845400e6
:100f60004240a90003003400eaff37000080eb0094
:100f7000010037000000eb004f0678004f05be006f
:100f80004f04be000080fa0000000600889fbe00eb
:100f90008a1f7800000478000102780082447800fb
:100fa0000305780070c6b300804f510021003c005b
:100fb00000c0e900804f5100de003d00724050004b
:100fc000804f5100410132000d003c006c40500048
:100fd000804f510054013c0000c0e900804f510097
:100fe000d4003d0050c2b300804f51004b0132008d
:100ff0007c404000804f51004b013a00cd0037004b
:1010000010c6b300804f5100ca00320004003c00fb
:1010100069405000804f510043013a007200370090
:1010200030c6b300804f5100180032000040e80085
:101030000900370000c7b300804f5100140132008f
:1010400008003c0000c0e900804f5100da00320087
:1010500065003c006540500080cf540032013a00ea
:101060000f00370050c7b300804f51005e003200c0
:1010700063404000804f51005b00320065405000eb
:10108000804f510028013a00100137009180e9009b
:10109000010a7800780090009171780028013700eb
:1010a000a8609000c0c6b30080cf50000a003a008c
:1010b0009400780064805000000a78001000be00a0
:1010c0004f89de00cf91de000002be0002037800ef
:1010d000820378001300370010c7b30080cf5000a0
:1010e00003003200a0c6b30080cf500006003a00d3
:1010f0009400780068805000000a78003002be003a
:101100002003be00070037001480e900000a7800c1
:101110001000780000027800cfa2de0005037800fe
:1011200086037800049cbe000694be00a860900070
:1011300080c6b30080cf50000e00320020c6b3003e
:1011400080cf500005003a000400fb00cf80de0095
:1011500001017800820178000a00370040c7b3001f
:1011600080cf5000030032006640400080cf500026
:1011700006003a0004007800cf80de00010178000c
:1011800082017800009cbe000294be003800be00c0
:101190002801be00e00f5000e08f5800e00f59001a
:1011a000e08f590003003d0078009000d1c2b300e9
:1011b0000a003700081090000018a3000300320056
:1011c00078009000b1c2b300040037000008a3000b
:1011d000530032007800900001c2b300017578001e
:1011e0000000e8004d003700a8609000c0c6b300c2
:1011f00080cf500006003a009400780064805000d0
:10120000000a78001002be006033b80013003700f7
:1012100010c7b30080cf500003003200a0c6b30057
:1012200080cf500006003a0094007800688050009b
:10123000000a78003002be002003be00070037001d
:101240001480e900000a780010007800000278009d
:10125000050020000600200007002000049cbe00be
:101260000694be00a860900080c6b30080cf5000f6
:101270000e00320020c6b30080cf500005003a00b7
:101280000480fb0001002000020020000300200079
:101290000a00370040c7b30080cf5000030032007f
:1012a0006640400080cf500006003a0004007800fd
:1012b000010020000200200003002000009cbe006e
:1012c0000294be00081090000038a3001400320001
:1012d0003800be002801be00e00f5000e08f58002b
:1012e000e00f5900e08f59000d00320080c7b300b5
:1012f00080cf54000300320080c5b30080cf54007b
:1013000007003a007800900001c3b300017578002f
:101310008000e80009f578000080e800700498007b
:101320007800900000004500600498008940780033
:10133000630037001400780068015000020a78004a
:101340003200be001201be00009cbe000294be002e
:10135000380090000000e00003003d00780090009d
:10136000d1c2b3000a003700081090000018a30093
:101370000300320078009000b1c2b30004003700cf
:101380000008a300050032007800900001c2b300fd
:10139000017578000000e800700498007800900063
:1013a000000045006004980089407800080078003b
:1013b000f201070064003700a8609000c0c6b300c7
:1013c00080cf5000250032000a003c0064405000ed
:1013d00080cf50002800320000c0e80080cf5000cd
:1013e000140032006840500080cf500022003a00c4
:1013f0000a00370040c7b30080cf50001e00320003
:101400006640400080cf50001b0032006940500011
:1014100080cf500018003a00060037001480e90021
:10142000000a780010007800485c900008487800b6
:10143000450037001480e900000a780010027800a7
:1014400068089000cf80de000101780082017800fa
:10145000009abe000292be003b0037001480e900f3
:10146000000a78001001780068089000cf80de0044
:101470000089be00340037001480e900000a7800bb
:1014800010007800680c9000080878002e003700e3
:101490001180e9008008780010007800cf80de001d
:1014a0000101780082017800009cbe000294be0019
:1014b00078009000000045006004980081c7b300e8
:1014c00008007800240007001f0037001480e9009e
:1014d000000a780010007800600498005809900015
:1014e0000200e00002003d0040fc07000900370058
:1014f0008000eb000dfd0700800078000000e00098
:1015000003003200680090000080500001003700a6
:1015100058089000100c98000b00370078009000dd
:1015200002757800060037007800900080004500c2
:101530000904e00001003a0059c2b300894878006c
:101540000000e800700498000000eb004f057800f0
:101550004f04be00000006002f03b000889fbe00ad
:101560008a9fbe008c9fbe008e1f78000007780007
:10157000f0872100c0b79f0080c5b30080cf500026
:1015800008003200e2862100c2b79f007740400089
:1015900080cf500003003a0083002000b3b79f00c3
:1015a0000a00370080c7b30080cf5000050032002a
:1015b000a4002000b4b79f0080c5b30080cf5000c6
:1015c00002003a0005012000b5b79f003e04be00ae
:1015d0002e05be0040c6b30080cf5000030032008d
:1015e0006540400080cf50000b003a00e00f5400ef
:1015f000e08f5c00e00f5d00e08f5d0006003d00c5
:101600006000b8006011b8000804500089845800d8
:101610000a0559008b855900bfb39700e88f530026
:1016200003003200f08f530045003a0002003700fb
:10163000360020000100370046002000e00f540073
:10164000e08f5c00e00f5d00e08f5d0005003a0078
:101650005e08900081012000a1b79f000000e0001b
:10166000080032003fb197000200e9000800600066
:10167000cfb197006340780090df9f007401200095
:10168000a4b79f00860278008502e90005003300b8
:101690008b05d1000a85d3008984d3000884d30048
:1016a000f9ff3700089fbe000a97be00afb397004e
:1016b0000700e90021fc2f008f80400000824000dd
:1016c0003fb197008202e90012003700afb39700e4
:1016d0008703e900a7b79f0000806200cfb09700a2
:1016e000615278003e00be002e01be0086037800e5
:1016f0008703e900050033008381d1000281d30014
:101700008180d3000080d300f9ff3700009fbe0026
:101710000297be003e00be002e01be00e00f50004a
:10172000e08f5800e00f5900e08f5900d6003400d8
:10173000afb397000700e000e4ff3c00d2003700a1
:10174000ae60900080c6b30080cf50000b00320026
:1017500006003c000104e000080032006640500032
:1017600080cf500073003a0004003700c0c6b300b9
:1017700080cf50006f003a00310037000801780038
:101780000800e00005003a005e089000810120009a
:10179000a1b79f000000e00009003200bfb1970030
:1017a000110009000381d8008000fd004fb29700ae
:1017b0006440780090df9f0075012000a5b79f006e
:1017c000bfb39700110009000781d800800178009d
:1017d000afb097000100e90022fc2f000f0141008b
:1017e000000241000c003700bfb297001100090051
:1017f0008501d80000017800afb397008703e900a6
:10180000a7b79f000590b90000805100cfb09700a6
:1018100061527800820178000300e0000300340088
:101820002fb197000200e000efff3c0003007800ba
:10183000cf80de0001017800820178003a00370095
:101840000806be00e00f5400e08f5c0005003a007f
:101850005e08900083012000a3b79f000000e00015
:10186000090032003fb297006121b9000c00be00b0
:101870007e070700cfb297006540780090df9f0099
:1018800077012000a7b79f003fb297006121b90000
:101890000c00be00650707000006be00afb297004f
:1018a0000500e90027fc2f008f834300808343005d
:1018b00097b79f00110037003fb197006114b9003e
:1018c0000801be000c00be006b0707000005be004b
:1018d000afb197008301e900a3b79f000801be00e4
:1018e0001e050700000056001fb29700cfb29700f8
:1018f0006552780094b79f000a06be00e00f5600bc
:10190000e08f5e0003003400afb397000700e000f3
:10191000e9ff3c004feade00cfa2de000c00be0073
:101920000401780084017800009fbe000297be0089
:1019300055003700e00f5400e08f5c00e00f5d00c1
:10194000e08f5d0005003a005e08900081012000f4
:10195000a1b79f000000e0000d0032003fb19700ea
:1019600002027800cfa2de0005037800860378002b
:101970000800be000a01be00cf0707004fb2970063
:101980006440780090df9f0075012000a5b79f009c
:101990003fb1970002027800cfa2de000503780075
:1019a000860378000800be000a01be00bb070700de
:1019b000009fbe000297be00afb197000300e90090
:1019c00024fc2f000f0242000006420020003700d6
:1019d000bfb2970005047800cfc4de000905780087
:1019e0008a0578000802be000a03be005fa89700bf
:1019f000efa897007fa997008fb19700b207070063
:101a0000d0b79f00e1b79f00f2b79f0083bf9f0050
:101a1000afb397008703e900a7b79f000802be0095
:101a20000a03be002e0807005faa970000005200bc
:101a3000cfb29700655678005fb09700efb097007f
:101a40007fb197008fb99700009fbe000297be003c
:101a50003e00be002e01be00d0af9f00e1af9f0050
:101a6000f2af9f0083b79f00e00f5000e08f580057
:101a7000e00f5900e08f590003003400afb0970029
:101a80000100e000d2ff3c003fb19700e80f510099
:101a900013003a000e1090000038a300100032002e
:101aa000afb19700f78f510006003e0024fc2f00d5
:101ab0000f024200e4c0790000c3b30080cf5000a1
:101ac00007003200afb297008502e900a5b79f007a
:101ad00000c3b30027fc2f008f83430080f37a00fc
:101ae000afb1970078811100120f98006e0090003e
:101af00024fc2f000f0242008300420056fb070027
:101b00001e0990005e089000800f510006003d0005
:101b100002005000000f98000e1090000040a1003d
:101b2000001798000f0037000000e0000d003d0096
:101b30000e10900074006000f00f500009003a0091
:101b40007e089000fe009000010050008e0890007a
:101b500001005000020050004240a9000100340082
:101b6000000f98004f0778004f06be004f05be00db
:101b70004f04be002f03b100000006008f04b00028
:101b8000889fbe008a9fbe008c9fbe008e1f78007b
:101b9000f0b79f0081f79f005001be004000be00db
:101ba000f0979f00819f9f00929f9f00a39f9f009f
:101bb00010c6b3000ff19700804f5100160032009d
:101bc00010c4b300804f510013003200ffb19700e2
:101bd000530890000000e00003003d00600020007a
:101be000d00998000c0037000000e0000a003a001d
:101bf00070c6b3000ff29700804f5200030032000e
:101c000070c4b300804f520003003a00100020005f
:101c1000ffb29700d00a9800ffb09700c0fa2f00db
:101c20000f004000fe01070080017800e20f500025
:101c300015003a0030002000ffb09700900898008f
:101c400010c6b3000ff19700804f51000a00320018
:101c500064404000804f5100070032000040e8001f
:101c6000804f510004003200c18321000040e80091
:101c7000804f510001003a0001842100ffb197001c
:101c800063009000160037000000e00018003400e8
:101c9000300020007fb29700100a980010c6b300f1
:101ca0008ff2970080cf52000a003200644040005b
:101cb00080cf5200070032000040e80080cf520081
:101cc00004003200418421000040e80080cf52002f
:101cd00001003a00818421007fb1970062009000ea
:101ce000315878003158780011487800c601370023
:101cf00014c6b3008ff2970084cf52000300320065
:101d000010c4b30080cf520013003a007fb0970098
:101d1000600190008200780000c3b3008058780012
:101d2000ffb29700e102980080c7b3008ff29700de
:101d300084cf52000100320080c5b3008048780093
:101d40000280e800ffb09700e0009800710090006a
:101d50000080e800f00098000300e00005003a0071
:101d6000e3979f0064fb2f000f01420003077800f8
:101d7000a0013700c5842100e5b79f0010c6b3005d
:101d80008ff0970080cf50000500320010c4b300e0
:101d900080cf5000a7003a00d2852100e2b79f0013
:101da000ffb19700530890001e0220000000e000e1
:101db000010035000007e8000e02e800d4b79f00dc
:101dc0006022b8006033b8007f9097008f9897002a
:101dd0001f999700af9997006f070700ffb0970012
:101de0003102be002103be000000e00004003d00ff
:101df0000400be000601be0003f0a200020037008e
:101e00000400be000601be00f0979f00819f9f0066
:101e1000929f9f00a39f9f006f91970064015100c4
:101e2000e2979f00c3fa2f008f8141006a80410032
:101e30000048eb006b824100c4b79f0031003700bf
:101e4000c201200003002000e5fa2f000f804200ad
:101e50009f0107007f9497008f9c97001f9d97001c
:101e6000af9d97000800be000a01be0012050700e2
:101e70000006be005fb1970067015100d2b79f0016
:101e80004240a9000a003400ba0307000002be0065
:101e90000203be000800be000a01be00aa0407003b
:101ea000f0979f00819f9f00929f9f00a39f9f009c
:101eb000cfb1970067804100710020000500370016
:101ec0006f6066004c6add004466de000c0672003e
:101ed000c4eede00e00f5600e08f5e000500340027
:101ee0008100e900e18f4000f5ff3a000100370072
:101ef0000060eb008100e900fdff3b00670040004f
:101f0000c0b79f00dfb297000500e0000900340071
:101f10006022b8006033b8007f9097008f989700d8
:101f20001f999700af999700200707000000e00075
:101f3000c3ff3c0060fb2f008f0040004fb19700b3
:101f4000010051000000e9008e0f500001003d002b
:101f5000000778000e00e00003003d0073fb2f0037
:101f60000f8141002c003700800f570005003d0015
:101f70000e80400010409000f3c0b300e74f5000c7
:101f800001003c008041eb00c4fa2f000f02420028
:101f90000e0042006a0040008e0078000100370009
:101fa0000000e9008100e90010417800834f5100f2
:101fb000fbff32000107e800efcf510001003a00bb
:101fc0000248e8000100e0000300350075fb2f0027
:101fd0000f814200060037000e07e8006f9097005f
:101fe00064004000e0979f0061fb2f000f814000dc
:101ff0008e0041008e017800030037001100fb00c5
:102000006fb29700e44878008301e9008100e9009d
:102010000300e000f9ff3d00ffb297005508900073
:102020000000e000f3003d000e00e900d00a980037
:10203000f00037007f9497008f9c97001f9d9700ba
:10204000af9d97006022b8006033b8000800be0062
:102050000a01be00d00607000000e00005003d00b8
:102060000bf0a200f8979f00899f9f009a9f9f0006
:10207000ab9f9f006f909700725927000280b900b4
:10208000026a2800130020007b050700e4005000ce
:10209000e1979f0015003b00e3801000c0ff2f0078
:1020a000008460000800ea00e0979f007f9097009e
:1020b0008f9897001f999700af999700497f21004b
:1020c000070037000808a300030032003902be00f1
:1020d0002903be00a70307000884d100e884440058
:1020e0000800e000f7ff3c001b0037000100e000a3
:1020f0001d003400c0ff2f0000806000e0979f00ab
:10210000000478006000b8000200200003ff2300f4
:10211000497f2100070037000808a30003003200b0
:102120003902be002903be00920307000884d100d3
:10213000e88444000800e000f7ff3c000002be0015
:102140000203be007f9097008f9897001f99970019
:10215000af999700fe030700f0979f00819f9f00b3
:10216000929f9f00a39f9f00ffb09700510990008e
:1021700060c6b3008ff1970080cf51000400320099
:102180006100200060c4b30080cf510002003a001b
:102190006f929700ea00420001074100f30f5700d9
:1021a000010034003e01200000c3b300e0779f002f
:1021b00075fb2f008f824200b5b79f0033003700b8
:1021c0000800be000a01be003b0407000006be0076
:1021d000680757004240a9000e003400e5020700de
:1021e0000002be000203be000800be000a01be00dd
:1021f000d50307006022b80046782d007719240027
:102200005c030700f0979f00819f9f00929f9f00b3
:10221000a39f9f003fb09700680440008900200002
:102220000d003700a4002000050020000c01be00b6
:10223000e0fd2f000f004000200107007fa897005d
:102240008fb097001fb19700afb1970004c3b300e0
:10225000046441000006be00e00f5600e08f5e00ff
:10226000060034008904e900e18f4400edff3a00e4
:102270000200370000c3b300006478008904e9005d
:10228000fcff3b0068044400b8b79f000e00e0006c
:102290000b0034007f9497008f9c97001f9d970040
:1022a000af9d97006022b8006033b8000800be0000
:1022b0000a01be003d0607000000e000c0ff3c0030
:1022c000c5fa2f008f8242006a804200bfb097009b
:1022d000008050008001e9006f919700e700410005
:1022e0006b81420000c3b300010037000201e80027
:1022f000924f1000fdff320074fb2f000f004200d0
:102300008080400082805000008041000202500026
:10231000e1979f00ffb29700d509900060c6b30017
:102320008ff2970080cf52000300320060c4b300e8
:1023300080cf520002003a008100e8000a00370016
:1023400050c6b3008ff0970080cf500005003200d8
:102350008000eb0050c4b3008ff2970080cf520092
:1023600001003a0011002000018741008e0f520049
:1023700001003d00040778000e00e0001d0035005c
:10238000840f570005003d00e2407f0095c3b30075
:1023900040c3b30080cf500001003c0005c3b30030
:1023a0000e0041008000e9008e0178000100370036
:1023b0008100e9008301e90011427800854f520055
:1023c000fbff32000307e80090c3b30080cf520048
:1023d00001003a008448e8000300e00005003d00e9
:1023e0000201e9000e07e8006f9097000000e80086
:1023f000e0979f006f9297008e0178008ff0970012
:102400007fb09700ca0007004f0778004f06be0054
:102410004f05be004f04be008f04b100000006004f
:10242000889fbe00800478006684400000ff27007b
:10243000180060004401de00f07f2000800f510092
:102440000e003a00800ceb00180478006f00640066
:102450001c003a00210090000000e00019003a0042
:10246000110090000000e00016003a00100020006b
:102470001100e00014003200120037000200e000fa
:1024800005003c0001007800dd0107000001780034
:102490000000e00008003c00f00028001800600088
:1024a00001fe2300010c700020c02f00800c4100b1
:1024b0000080eb0004003700800ceb000000eb0014
:1024c00001003700200020004f04be00000006007d
:1024d000889fbe008a1f78008c9fbe000004780091
:1024e0000206be00e6044000190178000200d00098
:1024f0004505de008a007800f07f2000800f55003f
:102500000c003a006f00610067003a00280090005c
:102510000000e00064003a00180090000000e000b5
:1025200061003a00100020001800e0005f00320057
:102530005d0037000a00e00007003a00080078005c
:10254000af010700800078000000e00002003400c6
:102550000a007800550037006108b9000c014000fe
:102560008d814800e07f2000800f5100e08f5900ee
:102570000d0034001900e00004003d006000b800c8
:102580000200200003ff2f00030037006000b800a6
:102590000200200003ff2700009cbe000294be0042
:1025a0001000200041003700e00f5100e08f59007b
:1025b00005003400f000280019006000c410dd00a0
:1025c000810c7000360037001900780001002800e7
:1025d000010360006f0060000040a000800c7800e4
:1025e00061015100e0815900c0fc2f00f1ff2f0074
:1025f000800f5100818f590006003d00860c780045
:102600000000eb002004980010049800000c7800f3
:1026100026003700020078000881e800e40044004a
:1026200005003700120c780011097800990878002d
:10263000800ceb0070004000f00f4000f9ff340008
:102640008002ea00150032008881e80070821200e2
:10265000980078008508de00130078000400dd0093
:10266000008c700064014400930078008508de004f
:10267000120078000400dd0080897000920078006c
:102680008508de00190078000400dd000089700074
:10269000190078000500de00800c7800990c7300aa
:1026a0000080eb0001003700200020004f06be0034
:1026b0004f0578004f04be00000006000400fa0039
:1026c000889fbe008a9fbe008c1f7800000678009d
:1026d00092bf9f00a3bf9f000404be000401be0080
:1026e0001fb89700afb89700e30307000005be00ce
:1026f0000001be000800be00980107001fb9970046
:10270000afb9970000005100818059002006980061
:10271000310698000a8ebe000c0078004f06780043
:102720004f05be004f04be000080fa000000060006
:102730000e00fa00889fbe008a9fbe008c9fbe00dc
:1027400000047800014578000206780083047800d0
:10275000840678000300e00002003c00190020001d
:102760000c8b210060c6b300804f55000e00320074
:1027700060c4b300804f55000b00320070c6b30038
:10278000804f55000300320070c4b300804f5500e5
:102790009c003a00e48f4600800035005808900005
:1027a000808f56007d003d008d05e80060c6b300b7
:1027b000804f55001000320060c4b300804f5500b8
:1027c0000d003200081090000038a30004003a0009
:1027d00058089000808f540001003d00590c98006b
:1027e000580890000b005000500c980002003b006d
:1027f0000000eb00500c98000b00e00027003c00ac
:10280000180990006800900001c3b30001707900be
:102810008201e800130c9800580890000000e000c6
:1028200003003c00081090000038a30005003200af
:1028300068009000e1c2b30001f079000280e80076
:10284000100c9800d80890000b00ea00808f500010
:1028500001003d008105ea000b00ea00200c980011
:1028600001804500500c9800890f500001003d0088
:1028700080047800390c9800680090009808900057
:1028800001004000090178008c007800f2f7070091
:1028900058089000090050001a003700980890006e
:1028a000680090008b8f540018003d00010040002c
:1028b000090178008c007800e7f7070018089000fd
:1028c00000814400120c980009805500200c9800eb
:1028d000580890000000e00003003c000810900041
:1028e0000038a30006003200e8009000e0c2b30008
:1028f00080707900380890000000e800300c9800e3
:1029000058089000400c9800a600370001004000d5
:102910000b0178008c007800cff7070018089000b2
:1029200000814500120c98008b84540058089000d8
:102930000000e00003003c00081090000038a300f5
:102940000500320068009000e1c2b3000170790018
:102950000200e800100c980058089000890f500001
:1029600001003d0080047800680090009808900005
:10297000010040008b00460009017800b6f707000f
:102980001808900000804400100c9800580890002f
:1029900009005000200c98008200370070c6b30078
:1029a000804f55000300320070c4b300804f5500c3
:1029b00014003a0058089000808f540004003d0035
:1029c000081090000038a30001003a00590c98004c
:1029d000580890000000e900500c980002003b00ed
:1029e0000000eb00500c980070c6b300804f5500fb
:1029f00002003a005ac6b3000b0037005ac4b300b5
:102a00000900370010c6b300804f550002003a009d
:102a10000ac7b3000400370010c4b300804f55004c
:102a200001003a000ac5b300180990006800900040
:102a30003c7079008201e800130c98000c027800c9
:102a4000580890000000e00003003c0008109000cf
:102a50000038a30017003200e8009000e0c2b30085
:102a600080f079008280e800110c980058089000ee
:102a70000000e0000f0034008904e900890f5000d5
:102a800001003d0080047800680090000080400054
:102a900009017800840078006ff70700180890009b
:102aa00000804400100c9800580890000900500065
:102ab000200c9800680090009808900001004000e9
:102ac0000086e8000a587800800078000d00e000d9
:102ad00004003500b0c2b300804878008c04780050
:102ae00004003700d0c2b300804878008c0478001e
:102af0008d06ea008005eb000a003700a2002000e6
:102b00008d00780070805700890007000fb897008b
:102b10009fb897007a81550001f17f008b05e8008e
:102b2000800678000d00e000f4ff3c00e18f5500c6
:102b300009003c0050c6b300804f5500030032002e
:102b400050c4b300804f550003003a0000c3b300e7
:102b5000005e78008c0478000b00e0000400320076
:102b60000b00e900fa8057000080400006003700a3
:102b700000c3b300805c7800050037008b05e900d6
:102b800002c3b300a05c41000b00e000fbff3c006f
:102b900068009000980890000100400000805400f8
:102ba000300c98000810900074006000f00f500086
:102bb0000e003a0078009000980890000100400054
:102bc000a808900001004000b808900001004000f3
:102bd000c80890008100400078089000808f500065
:102be00002003d0001005000000c98004f06be009e
:102bf0004f05be004f04be000080fa000000060032
:102c000000017800e6014000130078000100280070
:102c1000810360006f0060008009780012003a00b4
:102c2000220090000000e0000f003a001200900027
:102c30000000e0000c003a00160020001200e00046
:102c40003800320008003700e400410091097800a4
:102c50000280e80090087800120878000009eb0074
:102c60007003530001003700160020001300e0003d
:102c7000f5ff3200e40241000282e8001100370053
:102c800080004000150078004f00de008089700051
:102c90009500780081804000140078004f00de002d
:102ca000808a7000940078008180400012007800d3
:102cb0004f00de00008a700012007800000940001a
:102cc0000603e90013007800ef0f5000ecff360018
:102cd0008282e800640241000e0037009200d100b9
:102ce000150078004f00dd00008970009500d100cc
:102cf000140078004f00dd00808a70009400d1003d
:102d0000130078004f00dd00008a70009309d100a5
:102d10000603e80013007800ff0f5000efff3e00ad
:102d2000ef09600093897300060078000000060038
:102d300002027800809fbe00110009008200d800c6
:102d4000000178004f00be0002a2b900848050004c
:102d5000110098000208780000000600020ab9007d
:102d6000001bb9000200b80081004200810043004e
:102d7000000006004f89de00820178007a013700ea
:102d80002800fa00889fbe008a9fbe008c9fbe006c
:102d900007067800878669000c003b000304780072
:102da0008704780008f0a10009f0a100840f50000a
:102db000858f5800860f5900890f5c00030033008f
:102dc0000cf0a20001003a000cf0a1009d010700e8
:102dd0006400e1005f003200780147006408e10010
:102de000610032006c014700748557003200be005c
:102df0001201be003a04be001a05be001e03900078
:102e0000be0a90008503530006003d000004fd004b
:102e10008104fd000205fd008305fd008703ea0033
:102e2000050378000df8a3000400320060041400cc
:102e3000e0841c0060051d00e0851d006022b800d4
:102e40007d0320000d38e1008006eb000b00390007
:102e50004433dd00f300b200830173003900370012
:102e6000848272000d027800e10664008b85d10037
:102e70000a85d3008984d3000884d3008703e9003e
:102e8000f7ff3b0008004000898048000a01490024
:102e90008b81490004003b0060001000e0801800b6
:102ea00060011900e08119000358a30009003200f5
:102eb0008d82720084827200610260008301d10001
:102ec0000281d3008180d3000080d3000603e80094
:102ed0001b0037000348a30017003a000600e0007b
:102ee000170034000603e9000d00a30000004800ad
:102ef0008180480002014900838149000348a30002
:102f00000f003a000600e000090034000603e90063
:102f1000000040008180480002014900838149008f
:102f200001003a000003eb000348a300f5ff320064
:102f30006022b8000200370084827200618266005d
:102f40005901070003f0a1000cf0a70003f0a00056
:102f500050013700640147006408e10002003a00b4
:102f60000df8a30048013a003200be001201be0075
:102f7000480137002800fa00889fbe008a9fbe00e3
:102f80008c9fbe0003866b002e0107000028a30063
:102f900064003a000128a30067003a000008a3007b
:102fa00062003a000108a30065003a001e0090008c
:102fb000be08900081064000ed3fb100f48057004c
:102fc000ee019000111ab8008e099000311bb80074
:102fd0009e099000311cb800511db800f4855700bf
:102fe00046000700fe0190003a0007008b85e800cc
:102ff0003e0007008e09900040000700ee0190009f
:10300000340007008b85e800380007008e09900027
:10301000400007009e0990001b18b800890440007a
:103020000a854800fe019000340007008b85e80007
:1030300038000700ee019000300007008e09900074
:103040001b18b800890440000a8548000a98a300ac
:1030500008003a000402420085824a0006034b0041
:1030600087834b0008044c0089844c000a054d00fe
:103070008d06e90084827200850273004c3add00ff
:10308000850272000100320015002000443ade0083
:103090001400b2004538de00cb45dd000b007000a7
:1030a000c540de00cb4ddd008b8070004549de0061
:1030b000cb55dd000b017100c551de000d0378001a
:1030c000f900070003f0a1000cf0a70003f0a00036
:1030d000f00037001b18b800850240000683480046
:1030e000e0834b0060044c00070037001b18b80059
:1030f0000603400087834800faff37001b18b8001a
:103100008703400008844800e0844c0060054d00bf
:10311000000006001b18b80008044000898448001d
:10312000faff37000108a300d7003a005800be009c
:103130005801be00e3ff37000008a300d2003a00a8
:1031400009047800f9ff370007f0a2000cff3700f0
:103150002800fa00889fbe008a9fbe008c9fbe0098
:1031600003866b00b70007006400e10044003200f2
:103170006408e1004a0032006100e10046003200cc
:103180006108e10049003200ec0647006000b80029
:103190003d02be003d03be00f48657006011b8003a
:1031a0003d04be003d05be007d0320000b0037003e
:1031b0000000a0008d06e900130032000402420066
:1031c00085824a0006034b0087834b0000004000c5
:1031d00081804800020149008381490008025200b1
:1031e00089825a000a035b008b835b00f0ff3b007f
:1031f0000802420089824a000a034b008b834b007d
:103200008d06e900edff3a0084827200868272002a
:10321000f707b2008782720001003200150020001b
:103220001e0490003e0b900006035400e63fb000e1
:103230000368a300070032000000a7000500a000fb
:103240008301d1000281d3008180d3000080d300ac
:103250000603e8008301d1000281d3008180d300fe
:103260000080d3000002eb000482d2008e00070031
:1032700003f0a1000cf0a70003f0a00085003700c8
:10328000640247006408e1007f0032003400be00a1
:103290003401be00f6ff37006108e1007a00320019
:1032a0006011b8006000b800f1ff370003ff27008d
:1032b00002002000fbff37001400fa00889fbe00c8
:1032c0008a9fbe008c9fbe000004be000205be00a7
:1032d000680047000a90be000890be009e000700ec
:1032e0000070a7000bf0a100304320009e02900068
:1032f00080825200b0fe2f000028e10011003d0046
:10330000b0fc2f000028e100150034001e099000d9
:103310008e0890007e0090000501b0000201d100ef
:103320008180d3000080d3008502e800fbff3a00d3
:103330000b00e00057003b0060001000e080180028
:1033400054003700f0ff2f00f1ff27000b00e000d2
:1033500050003b0001002800000020004d00370015
:103360006000b8004b003700889fbe0083047800df
:103370000300e0002c00350003003c0000827000d8
:10338000040271002600320036432000c5002000f0
:103390008383cf000a0039000541b1008283cf004a
:1033a000070039000541b1008183cf0004003900d6
:1033b0000541b1008083cf00010039000541b10013
:1033c00085c353006022b800120032000a003b009f
:1033d00084827200610260008301d1000281d30007
:1033e0008180d3000080d3000603e8008743e80013
:1033f000f7ff3a00070037000000400081804800d6
:1034000002014900838149000603e9008743e9007e
:10341000f9ff3a002400070009f0a70003f0a0001c
:103420004f04be000000060060001000e08018009d
:1034300060011900e0811900d3ff3b00033e2c001e
:10344000f7ff3700680447000294be000094be00f6
:10345000fc0447008694be008494be0009007800f6
:103460003d000700080078003b0007009900780045
:10347000814f70000b003b000800be005d0007009c
:103480004f00b10003003700f3ff2700f2ff2f00c9
:103490006110b9004f06be004f05be004f04be00cc
:1034a0000080fa00000006001800200057002000ed
:1034b000080453000d003d000600200097fc2f007b
:1034c0000740e1001e003400848272006102600047
:1034d0008301d1000281d3008180d3000080d3001a
:1034e0000804e800f8ff3a0047002000610460008b
:1034f00005047400040464000d0032006100400003
:10350000e080480060014900e081490003b8a5005f
:10351000070032000603e8006538e10004003a00c5
:103520008301d1000281d3008180d3000080d300c9
:10353000f87f20000830e100030035000803780020
:103540006000b8006011b8004433dd00f300b20041
:103550008301730000000600800078005002be0066
:103560005003be004439de00f700b200f37f2000b4
:1035700003016100090032000218e10016003a0060
:1035800085017200830173008381730000082000ad
:1035900015003a004000200013003700850172003a
:1035a000830173008381730005003a0004a8be0004
:1035b00006a8be00100020000b0037000201e90041
:1035c0000402420085824a0006034b0087834b00b9
:1035d0000748a300f9ff32000740a00004a8be007e
:1035e00006a8be00200020008000980092009800ed
:1035f00000000600e48240001078a30007003200bb
:10360000640240001178a3003400be001401be0023
:10361000040032000330a700000006003500be00a1
:103620001501be000330a000000006006022b800b3
:10363000060220000000d0008180d2000482d20067
:103640008582d2000000a0000202520083825a004c
:10365000030031000202420083824a000000a10000
:103660000603e900f3ff3a0000000600efff070041
:103670000400be0000000600839f68000100e00017
:1036800002003d0060001000e08018000300e00030
:1036900002003d0060011100e0811900e3ff070016
:1036a0004f00e00002003b0060001000e0801800c6
:1036b00000000600881f7800000478005001be005a
:1036c0004000be000400400085804800060149001b
:1036d00087814900009cbe000294be000400e10006
:1036e0000588e1000690e1000798e1000200310042
:1036f000680044001008e8004f047800000006004d
:10370000f4874700889fbe008a9fbe008c9fbe0042
:103710008e1f78000205be000004be00d4b79f00d3
:10372000e5b79f00f6b79f0087bf9f000000eb0042
:10373000c0b79f00b0b79f00a0b79f0090b79f0091
:1037400080b79f000d042000bfb097004fb09700d6
:10375000000140000000e0000f003d004f08de00c7
:1037600000007100c0b79f009e00070001003d00ef
:1037700012002000a100070001003d0012002000ff
:10378000a6000700b1000700b60007000f004000c8
:10379000c8ff0700220037004f08de000006710056
:1037a000ccb79f008f00070001003d0012002000f1
:1037b0009200070001003d00120020009700070062
:1037c000a20007000fb297009fb297002fb3970097
:1037d000bfb39700a90007000000520081805a0083
:1037e00002015b0083815b0080b79f0091b79f005f
:1037f000a2b79f00b3b79f000007eb009f00070030
:103800000020e10001a8e10002b0e10003b8e100fe
:10381000010031001e0020000e005600c0b79f00be
:103820004fb297000400e0000700350010002000b0
:10383000010020006011b800080470008984700045
:103840000a0571008b8571008d06e900beff3a0004
:103850000400e00003003d00820007000f0040006c
:1038600094ff07004fa897000000e00004003a0012
:103870000fb497009fb497002fb59700bfb597007e
:10388000940007004f0778004f06be004f05be00aa
:103890004f04be004f01b10000000600881f7800f1
:1038a00018002000881f780095ff07008f87e90027
:1038b0004f04780000000600801feb0090ff070017
:1038c0008f87e90000000600889fbe008a9fbe0027
:1038d0008c1f78006e00070007003d007300070092
:1038e000e00f5b00e08f5b0007003d003200070047
:1038f0000006eb00040037003400070002003d0022
:103900002a0007001c00200072000700e3ff0700e8
:103910000203be000002be000c00e0000100320005
:10392000220007000400be000601be004f0678001a
:103930004f05be004f04be0000000600889fbe0079
:103940008a9fbe008c1f78005100070005003d00d3
:1039500056000700e00f5b00e08f5b0006003d00b3
:10396000040037001900070003003d006000b800a4
:103970006011b8001000070056000700ceff0700d6
:103980000203be000002be000c00e0000100320095
:10399000060007000400be000601be004f067800c6
:1039a0004f05be004f04be00000006006000b800d6
:1039b0006011b800000037000402500085825800f2
:1039c0000603590087835900000006000006eb003b
:1039d000e00f5200e08f5a00e00f5b00e08f5b00c9
:1039e000000006000180400090b79f000001eb003e
:1039f0008fb097000100e000000006000200700098
:103a000090b79f000180400080b79f000001eb004d
:103a1000ffa897000100e00000000600020070000f
:103a200080b79f00018040006faa9700cf20de0082
:103a300001007000f0af9f00040242002500070063
:103a40004f18de000002720000000600e4af9f0085
:103a50000804440089844c000a054d008b854d0004
:103a6000000006003fb29700cfb297005fb3970007
:103a7000efb3970000fe2f00000006003fb0970054
:103a8000cfb097005fb19700efb19700000006003c
:103a90000205be000004be00e00f5000e08f580099
:103aa000e00f5900e08f5900000006006000b800e8
:103ab0006011b80008045000898458000a055900b4
:103ac0008b8559001c002000e00f5200e08f5a0047
:103ad000000006000800be000a01be00000006004b
:103ae000889fbe008a9fbe008c1f78000205be0022
:103af0000004be000006eb00e00f5000e08f58000d
:103b0000e00f5900e08f590007003d006000b80049
:103b10006011b80008045000898458000a05590053
:103b20008b8559001c002000e00f5200e08f5a00e6
:103b3000e00f5b00e08f5b0002003d000f0007001c
:103b40000c00a2000800be000a01be001c00070015
:103b50000203be000002be000c00e00001003200c3
:103b6000060007000400be000601be004f067800f4
:103b70004f05be004f04be00000006006000b80004
:103b80006011b800040250008582580006035900f5
:103b900087835900000006008f1fd1002a0007000c
:103ba0008f87e9000000e00000000600809feb0026
:103bb000250007008f87e9000000e00000000600f4
:103bc000889fbe008a9fbe008c9fbe000404b80080
:103bd0000506b8008904460060854e000606b80058
:103be0000a054600e0854e000706b8008b05460032
:103bf000040eb800890446000a854e00e0854d0099
:103c0000050eb8000a0546008b854e00060eb8006a
:103c10008b0546000416b8000a0546008b854e0049
:103c20000516b8008b054600041eb8008b0546003b
:103c30000800be000a01be004f06be004f05be00d0
:103c40004f04be0000000600889fbe008a9fbe0091
:103c50008c9fbe000404be000605be00809fbe000f
:103c6000829fbe0021000700040678000800be0005
:103c70000a01be001d000700840678004f03be0045
:103c80004f02be008d4f76007fb0970013003300c7
:103c9000f0ff2f008b8f6b0006003b000d066600c7
:103ca0000c00a7000a00370007f0a6001000200053
:103cb0000a003700880f5200898f5a008a0f5b0074
:103cc0008b8f5b00030039001000200001003e00d4
:103cd0000000200007f0a7000000ea004f06be0029
:103ce0004f05be004f04be000000060005ff270080
:103cf00005826100070032000428e1000100320063
:103d0000240005000600070001003a0044000500f9
:103d10000408050002000700f9ff3a00140005003e
:103d20006f8261008102700085027100850272005d
:043d30000000060089
:020000040000fa
:020000040001f9
:0457f800ae7b000084
:020000040000fa
:020000040001f9
:0457fc00fe3f00006c
:020000040000fa
:100008003e2700003e2700003e2700003e27000054
:100018003e2700003e2700003e2700003e27000044
:100028003e2700003e2700003e270000b66800007b
:100038003e2700003e2700003e27000046690000da
:10004800766900003e2700003e2700009269000004
:100058003e2700003e2700003e2700003e27000004
:100068003e2700003e2700003e2700003e270000f4
:100078003e2700003e2700003e2700003e270000e4
:100088003e2700003e2700003e2700003e270000d4
:100098003e2700003e270000e46900003e270000dc
:1000a8003e2700003e2700003e2700003e270000b4
:1000b8003e2700003e2700003e2700003e270000a4
:1000c8003e2700003e2700003e2700003e27000094
:1000d8003e2700003e2700003e2700003e27000084
:1000e8003e2700003e2700003e2700003e27000074
:1000f8003e2700003e2700003e2700003e27000064
:100108003e2700003e2700003e2700003e27000053
:100118003e2700003e2700003e2700003e27000043
:100128003e2700003e2700003e2700003e27000033
:100138003e2700003e2700003e2700003e27000023
:100148003e2700003e2700003e2700003e27000013
:100158003e2700003e2700003e2700003e27000003
:100168003e2700003e2700003e2700003e270000f3
:100178003e2700003e2700003e2700003e270000e3
:100188003e2700003e2700003e2700003e270000d3
:100198003e2700003e2700003e2700003e270000c3
:1001a8003e2700003e2700003e2700003e270000b3
:1001b8003e2700003e2700003e2700003e270000a3
:1001c8003e2700003e2700003e2700003e27000093
:1001d8003e2700003e2700003e2700003e27000083
:1001e8003e2700003e2700003e2700003e27000073
:0801f8003e2700003e27000035
:020000040000fa
:100208003e2700003e2700003e2700003e27000052
:100218003e2700003e2700003e2700003e27000042
:100228003e2700003e2700003e270000b668000079
:100238003e2700003e2700003e27000046690000d8
:10024800766900003e2700003e2700009269000002
:100258003e2700003e2700003e2700003e27000002
:100268003e2700003e2700003e2700003e270000f2
:100278003e2700003e2700003e2700003e270000e2
:100288003e2700003e2700003e2700003e270000d2
:100298003e2700003e270000e46900003e270000da
:1002a8003e2700003e2700003e2700003e270000b2
:1002b8003e2700003e2700003e2700003e270000a2
:1002c8003e2700003e2700003e2700003e27000092
:1002d8003e2700003e2700003e2700003e27000082
:1002e8003e2700003e2700003e2700003e27000072
:1002f8003e2700003e2700003e2700003e27000062
:100308003e2700003e2700003e2700003e27000051
:100318003e2700003e2700003e2700003e27000041
:100328003e2700003e2700003e2700003e27000031
:100338003e2700003e2700003e2700003e27000021
:100348003e2700003e2700003e2700003e27000011
:100358003e2700003e2700003e2700003e27000001
:100368003e2700003e2700003e2700003e270000f1
:100378003e2700003e2700003e2700003e270000e1
:100388003e2700003e2700003e2700003e270000d1
:100398003e2700003e2700003e2700003e270000c1
:1003a8003e2700003e2700003e2700003e270000b1
:1003b8003e2700003e2700003e2700003e270000a1
:1003c8003e2700003e2700003e2700003e27000091
:1003d8003e2700003e2700003e2700003e27000081
:1003e8003e2700003e2700003e2700003e27000071
:0803f8003e2700003e27000033
:020000040000fa
:103d3400303000003030000028290000003000003e
:103d4400303100003028000029000000303000002d
:103d540034300000283000003030000030290000ea
:103d64000030000030340000302800003030000003
:103d740030310000290000003031000030300000f4
:103d840028290000003000003035000030280000f1
:103d940030300000303000002900000030320000d4
:103da4003030000028300000303000003030000097
:103db400303000003830000030300000302900007e
:103dc40000300000303200003028000029000000dc
:103dd4003030000036300000283000003030000061
:103de4003029000000450000525200004f520000ec
:103df400002b0000434d0000544900000052000015
:103e0400494e0000470000004e4f000020430000d0
:103e1400415200005249000045520000002b0000ae
:103e2400434c00004950000000410000542b0000a6
:103e3400475300004e0d0000002b000043460000d5
:103e4400554e000000410000542b00004346000082
:103e5400554e00003f0d0000004e00004f52000080
:103e64004d4100004c200000504f00005745000019
:103e740052200000444f0000574e00000052000042
:103e84004459000000530000454e00004420000047
:103e94004f4b0000001a000000460000726f000043
:103ea4006d000000436100006c6c000020520000b3
:103eb4006561000064790000002b0000435200009b
:103ec400454700003a200000302c0000310000007b
:103ed400617400002b63000072650000673f0000fe
:103ee4000d0000002b4300004d540000450000006d
:103ef400415400002b4300004d540000453f000096
:103f04000d0000004154000044250000730d000022
:103f1400002b000043550000534400000043000000
:103f24004c4f000053450000204f00004b000000a0
:103f3400617400002b63000069700000636c000072
:103f44006f730000650d0000002b00004347000064
:103f540041540000543a000000610000742b00003a
:103f64006367000061740000743f00000d000000ee
:103f74005354000041540000453a00000061000021
:103f8400742b00006369000070730000746100000a
:103f940074750000730d00000049000050200000fb
:103fa40053540000415400005553000000490000e0
:103fb40050200000434c00004f5300004500000017
:103fc4005348000055540000204f00004b000000ef
:103fd400617400002b6300006970000073680000c6
:103fe400757400000d000000617400002b63000074
:103ff4006970000063730000677000003d310000c9
:104004002c22000025730000220d00000061000036
:10401400742b000063690000706300007367000084
:10402400703d0000312c00002225000073220000a6
:104034002c22000025730000222c00002225000001
:10404400732200000d0000004f4b000000610000cf
:10405400742b000063730000747400000d000000f2
:10406400617400002b630000696900006372000042
:104074000d0000003838000000610000742b0000bf
:104084006369000066730000720d000000610000a7
:10409400742b0000636900007073000074610000f9
:1040a400727400003d22000074630000702200005e
:1040b4002c220000257500002e250000752e00001e
:1040c400257500002e250000752200002c2200001a
:1040d40038300000220d0000004300004f4e000065
:1040e4004e45000043540000004300004f4e0000c2
:1040f4004e45000043540000204f00004b000000d8
:104104003e20000000610000742b00006369000081
:1041140070730000656e0000640d00000052000022
:10412400454300004945000056450000204f00006b
:104134004b000000617400002b630000636c0000fe
:104144006b3d000022250000322e00003275000075
:104154002f250000322e0000327500002f250000ac
:10416400322e0000327500002c250000322e000093
:10417400327500003a250000322e0000327500002e
:104184003a300000302b000030300000220d0000d7
:10419400002b0000434300004c4b00000041000092
:1041a400542b0000434300004c4b00003f0d000023
:1041b400005000004f5300005420000068740000b9
:1041c400747000003a2f00002f770000777700000a
:1041d4002e6500006c760000696e00002e630000fe
:1041e4006f6d00002e750000612f000067730000e2
:1041f4006d2f0000696e000073650000727400008a
:10420400312e000070680000703f0000613d000026
:1042140025730000266200003d250000752600007d
:10422400633d000025640000266400003d25000075
:1042340075260000653d0000257500002666000017
:104244003d25000075260000673d00002564000040
:104254002048000054540000502f0000312e00006c
:10426400300d00000a0d00000a000000546900002f
:104274006d65000020000000617400002b630000e5
:104284006d670000733d000022000000220d000055
:10429400002b0000434d000047530000004e000077
:1042a400756d000062650000727300003a20000022
:1042b40000250000752c0000004c0000697300000c
:1042c40074200000656d0000707400007900000027
:1042d400506800006f6e0000652000006e750000dd
:1042e4006d62000065720000733a00000d0a000060
:1042f40000200000257300000d0a000000450000a6
:104304006d700000747900000d0a000000200000a8
:1043140025730000004500006d70000074790000f2
:104324000073000070610000737300002323000019
:104334000070000061730000733a00000a25000059
:104344007300000073650000747000006172000067
:10435400616d0000230000002a2500007323000083
:1043640000490000503a00000a250000752e0000a4
:10437400257500002e250000752e0000257500000f
:104384000a4d00005f6e0000627200003a250000d2
:10439400730a0000415000004e3a00000a25000054
:1043a400730a0000415000004e7500007372000053
:1043b4003a250000730a0000415000004e700000ce
:1043c400736400003a250000730000007365000068
:1043d400746e000062720000230000007365000028
:1043e400747000006173000073230000004e00002d
:1043f400657700002070000061730000733a0000cc
:104404000a2500007300000073740000617400004a
:10441400757300002323000000490000503a000097
:104424000a250000752e0000257500002e250000c9
:10443400752e0000257500000a5300006574000005
:10444400696e0000677300003a20000025750000c3
:104454000a4d00005f6e0000627200003a25000001
:10446400730a0000415000004e3a00000a25000083
:10447400730a0000415000004e20000075730000d4
:10448400657200006e6100006d6500003a25000051
:10449400730a0000415000004e20000070610000cb
:1044a40073730000776f0000726400003a25000007
:1044b400730000007365000074740000696e0000ee
:1044c400677300002300000053650000747400004b
:1044d400696e0000677300003a2000002575000033
:1044e4000075000073730000642300000073000073
:1044f4006574000070650000726900006f6400005c
:104504002300000050650000726900006f64000021
:104514003a20000025750000206d0000696e00003f
:1045240000730000657400006f75000074230000c0
:10453400004f000075740000313a0000257500003a
:104544003b0d00000a4f000075740000323a000071
:10455400257500003b0000006765000074640000de
:1045640061740000612300002300000066750000f0
:104574006c6c000072650000736500007423000019
:1045840023000000467500006c6c000020720000df
:104594006573000065740000206400006f6e000005
:1045a400650000007265000073650000742300005c
:1045b40023000000526500007365000074200000b1
:1045c400646f00006e6500000073000065740000f5
:1045d400736d00007323000000530000656e00003b
:1045e400645300004d5300003a250000750a000092
:1045f4000d540000656d0000702000006c6900001f
:104604006d690000743a0000202500007500000068
:1046140073650000746d0000656d00006f23000079
:10462400004e000065770000206d0000656d0000fd
:104634006f3a00000a0d00002573000000610000bd
:10464400646400006e6200007223000000640000d5
:10465400656c00006e6200007223000000640000bc
:10466400656c00006e62000072730000232300007a
:10467400004100006c6c0000206e0000756d0000ad
:10468400626500007273000020640000656c000025
:10469400657400006564000000610000646400004b
:1046a4006e62000072730000230000006765000062
:1046b400746e000062720000732300002300000087
:1046c40073650000746100006c7200006d310000bd
:1046d40023000000416c0000617200006d200000a6
:1046e4006461000074650000733a0000002000005b
:1046f400257500002f250000753a0000257500007f
:104704002d2500007500000067650000746100003d
:104714006c7200006d3100002323000000200000b3
:10472400257500002f250000753a0000257500004e
:104734000073000065740000616c0000726d00007d
:1047440032230000004100006c610000726d000023
:1047540020740000696d0000657300003a000000d9
:1047640020250000753a0000257500002d25000065
:104774007500000067650000746100006c72000041
:104784006d32000023230000002000002575000086
:104794003a250000750000002b4300004d4700003f
:1047a40052000000617400002b6300006d6700007c
:1047b400723d0000310d000000570000726f0000d0
:1047c4006e670000207000006173000073770000c2
:1047d4006f7200006400000045720000726f0000f8
:1047e40072200000696e0000206300006f6d0000fd
:1047f4006d6100006e640000005500006b6e0000e7
:104804006f7700006e200000636f00006d6d000084
:10481400616e000064000000415400002b4300005e
:104824004d470000443d0000310d000000610000d0
:10483400742b0000636d0000677200003d320000bd
:104844000d000000415400002b4300004d470000c0
:10485400443d0000320d000000610000742b000094
:10486400636d0000677200003d3300000d0000001e
:10487400415400002b4300004d470000443d00001c
:10488400330d000000610000742b0000636d000014
:10489400677200003d3400000d0000004154000028
:1048a4002b4300004d470000443d0000340d000040
:1048b40000610000742b0000636d0000677200004b
:1048c4003d3500000d000000415400002b43000062
:1048d4004d470000443d0000350d0000006100001c
:1048e400742b0000636d0000677200003d36000009
:1048f4000d000000415400002b4300004d47000010
:10490400443d0000360d000000610000742b0000df
:10491400636d0000677200003d3700000d00000069
:10492400415400002b4300004d470000443d00006b
:10493400370d000000610000742b0000636d00005f
:10494400677200003d3800000d0000004154000073
:104954002b4300004d470000443d0000380d00008b
:1049640000610000742b0000636d0000677200009a
:104974003d3900000d000000415400002b430000ad
:104984004d470000443d0000390d00000061000067
:10499400742b0000636d0000677200003d3100005d
:1049a400300d000000410000542b0000434d000076
:1049b400474400003d310000300d0000002f00008e
:1049c4003f250000342e000034750000210d000046
:1049d4000a00000006300000353100000d0a000016
:1049e40000010000523200000230000030300000ac
:1049f40030280000290300001a00000001520000c2
:104a0400320200003030000031300000282900005c
:104a1400031b000000010000423000000375000089
:104a24000041000054450000310d00000056000014
:104a3400686f000064200000312000006f740000e3
:104a44006b74000072690000742c0000206d00007b
:104a54006f640000756c00002022000025730000c4
:104a6400220a00000d250000322e000032750000dd
:104a74003a250000322e0000327500000056000076
:104a8400686f000064200000312000007a6100009b
:104a94006b720000697400002c2000006d6f000030
:104aa400647500006c2000002225000073220000c1
:104ab4000a0d0000253200002e320000753a000075
:104ac400253200002e3200007500000056680000f8
:104ad4006f64000020320000206f0000746b00003f
:104ae40074720000697400002c2000006d6f0000d7
:104af400647500006c200000222500007322000071
:104b04000a0d0000253200002e320000753a000024
:104b1400253200002e3200007500000056680000a7
:104b24006f64000020320000207a0000616b0000f6
:104b340072690000742c0000206d00006f64000096
:104b4400756c00002022000025730000220a00007a
:104b54000d250000322e0000327500003a250000b9
:104b6400322e00003275000000560000686f00000d
:104b740064200000332000006f7400006b74000098
:104b840072690000742c0000206d00006f64000046
:104b9400756c00002022000025730000220a00002a
:104ba4000d250000322e0000327500003a25000069
:104bb400322e00003275000000560000686f0000bd
:104bc40064200000332000007a6100006b72000052
:104bd400697400002c2000006d6f000064750000f3
:104be4006c20000022250000732200000a0d000042
:104bf400253200002e320000753a000025320000f4
:104c04002e32000075000000566800006f6400003a
:104c140020340000206f0000746b000074720000e8
:104c2400697400002c2000006d6f000064750000a2
:104c34006c20000022250000732200000a0d0000f1
:104c4400253200002e320000753a000025320000a3
:104c54002e32000075000000566800006f640000ea
:104c640020340000207a0000616b000072690000ab
:104c7400742c0000206d00006f640000756c00004f
:104c84002022000025730000220a00000d250000e8
:104c9400322e0000327500003a250000322e00004a
:104ca4003275000000540000656d0000706500005e
:104cb400726100007475000072610000202500001c
:104cc400644300002c2000006d6f00006475000038
:104cd4006c20000022250000732200000a0d000051
:104ce400253200002e320000753a00002532000003
:104cf4002e320000750000004154000048300000ce
:104d04000d0000004e7500006d6200006572000029
:104d14002d5000002c4500002b0d00000a0000005f
:104d2400257500002d000000252e000035660000ca
:104d34002c00000045720000726f0000722c00000d
:104d4400002500002e320000660d00000a0000005d
:104d540045720000726f0000720d00000a0000002e
:104d6400504f000053540000206800007474000089
:104d7400703a00002f2f000077770000772e000094
:104d8400656c0000766900006e2e0000636f000001
:104d94006d2e0000756100002f670000736d000028
:104da4002f6900006e730000657200007432000009
:104db4002e700000687000003f6100003d25000077
:104dc40073260000623d0000257500002663000084
:104dd4003d2500002e35000066260000643d0000dd
:104de400252e000032660000266500003d250000e7
:104df4002e32000066200000485400005450000089
:104e04002f3100002e3000000d0a00000d0a0000b2
:044e1400000000009a
:020000040000fa
:106000000400fa00204798002e4090000074a10080
:10601000204798002e409000004f78001e00fb00a3
:106020004480de001e4f68001e00fb004280de0040
:106030001e4f68001e00fb000080d1001e4f68004c
:106040001e00fb00610060000004e000040032005c
:1060500000c8b300ae40900000c070002047980018
:106060002e4090000000fb00a011880033c2bf004a
:10607000614060000004e000fcff32000080fa0094
:10608000000006000200fa00000f7800050037004b
:106090001e007800104078009e007800618f40005c
:1060a000d7ff07001e007800104078000004e000d1
:1060b000f7ff3a000080fa00000006000200fa0034
:1060c000000f78000000eb00300888001e00780008
:1060d00030b2880030b280000000e000fdff3a00de
:1060e0000080fa00000006000000fa00881f780017
:1060f00020002000041f07008bf6b70020002000be
:10610000011f07004800de008cf6b70030002000b9
:10611000fd1e07008df6b70030002000fa1e0700b4
:106120004800de008ef6b70060002000f61e070073
:1061300050ba88000000eb0050b28800170037000a
:1061400058b2800050b280000000d10067004000cb
:10615000ed1e0700804078006068210000004400c8
:106160000148780050b280000004e80050b280007e
:106170000000d10067004000e31e07004800de0079
:1061800080407800606821000000440001487800e9
:1061900050b280000080e80050b2880050b2800009
:1061a000e30f5000e6ff36000000eb0050b288001d
:1061b0001700370058b2800050b280000000d100b4
:1061c00069004000d01e0700804078000080200059
:1061d000000044000148780050b280000004e8004c
:1061e00050b280000000d10069004000c61e0700c8
:1061f0004800de008040780000802000000044005d
:106200000148780050b280000080e80050b2880059
:1062100050b28000e90f5000e6ff36000000eb00ae
:1062200050b288001700370058b2800050b280008a
:106230000000d1006e004000b31e070080407800cf
:10624000b0802000000044000148780050b2800077
:106250000004e80050b280000000d1006e00400051
:10626000a91e07004800de0080407800b0802000b2
:10627000000044000148780050b280000080e8002f
:1062800050b2880050b28000e90f5000e6ff36009f
:106290000000eb0050b288001700370058b28000b1
:1062a00050b280000000d10073004000961e07002d
:1062b00080407800608120000000440001487800a0
:1062c00050b280000004e80050b280000000d1000d
:1062d000730040008c1e07004800de0080407800fc
:1062e00060812000000044000148780050b2800026
:1062f0000080e80050b2880050b28000e90f5000e2
:10630000e6ff36000000eb0050b2880017003700af
:1063100058b2800050b280000000d10078004000e8
:10632000791e070080407800f068210000004400da
:106330000148780050b280000004e80050b28000ac
:106340000000d100780040006f1e07004800de000a
:1063500080407800f0682100000044000148780087
:1063600050b280000080e80050b2880050b2800037
:10637000f30f5000e6ff36000000eb0050b288003b
:106380001700370058b2800050b280000000d100e2
:106390002002b0005c1e070080407800406e2100a3
:1063a000000044000148780050b280000004e8007a
:1063b00050b280000000d1002002b000521e070041
:1063c0004800de0080407800406e2100000044005c
:1063d0000148780050b280000080e80050b2880088
:1063e00050b28000e90f5000e6ff36000000eb00dd
:1063f00050b288001700370058b2800050b28000b9
:106400000000d1007002b0003f1e070080407800fd
:10641000e06e2100000044000148780050b2800086
:106420000004e80050b280000000d1007002b0000b
:10643000351e07004800de0080407800e06e210035
:10644000000044000148780050b280000080e8005d
:1064500050b2880050b28000e90f5000e6ff3600cd
:106460000000eb0050b288001700370058b28000df
:1064700050b280000000d100c002b000221e070010
:1064800080407800806f21000000440001487800bf
:1064900050b280000004e80050b280000000d1003b
:1064a000c002b000181e07004800de0080407800df
:1064b000806f2100000044000148780050b2800045
:1064c0000080e80050b2880050b28000e90f500010
:1064d000e6ff36000000eb0050b2880017003700de
:1064e00058b2800050b280000000d1001003b0000c
:1064f000051e070080407800607121000000440004
:106500000148780050b280000004e80050b28000da
:106510000000d1001003b000fb1d07004800de00a2
:10652000804078006071210000004400014878003c
:1065300050b280000080e80050b2880050b2800065
:10654000e90f5000e6ff36000000eb0050b2880073
:106550001700370058b2800050b280000000d10010
:106560006003b000e81d0700804078000072210041
:10657000000044000148780050b280000004e800a8
:1065800050b280000000d1006003b000de1d0700a3
:106590004800de00804078000072210000004400c6
:1065a0000148780050b280000080e80050b28800b6
:1065b00050b28000e90f5000e6ff36000000eb000b
:1065c00050b288001900370058b2800050b28000e5
:1065d0000000d100b003b000cb1d07000081fb001c
:1065e00088004400207021000080400002087800ec
:1065f00050b280000004e80050b280000000d100da
:10660000b003b000c01d07004800de000081fb00a1
:1066100088004400207021000080400002087800bb
:1066200050b280000080e80050b2880050b2800074
:10663000e90f5000e4ff36000000eb0050b2880084
:106640001900370058b2800050b280000000d1001d
:106650000004b000ac1d07000081fb00880044006e
:10666000a0722100008040000208780050b2800033
:106670000004e80050b280000000d1000004b00027
:10668000a11d07004800de000081fb0088004400d7
:10669000a0722100008040000208780050b2800003
:1066a0000080e80050b2880050b28000e90f50002e
:1066b000e4ff36000000eb0050b2880017003700fe
:1066c00058b2800050b280000000d1005004b000e9
:1066d0008d1d070080407800e07321000000440019
:1066e0000148780050b280000004e80050b28000f9
:1066f0000000d1005004b000831d07004800de00f8
:1067000080407800e07321000000440001487800d8
:1067100050b280000080e80050b2880050b2800083
:10672000e90f5000e6ff36000000eb0050b2880091
:106730001700370058b2800050b280000000d1002e
:10674000a004b000701d070080407800a06b2100fd
:10675000000044000148780050b280000004e800c6
:1067600050b280000000d100a004b000661d0700f8
:106770004800de0080407800a06b2100000044004b
:106780000148780050b280000080e80050b28800d4
:1067900050b28000e90f5000e6ff36000000eb0029
:1067a00050b288001700370058b2800050b2800005
:1067b0000000d100f004b000531d070080407800b5
:1067c000406a2100000044000148780050b2800077
:1067d0000004e80050b280000000d100f004b000d6
:1067e000491d07004800de0080407800406a210013
:1067f000000044000148780050b280000080e800aa
:1068000050b2880050b28000e90f5000e6ff360019
:106810000000eb0050b288001700370058b280002b
:1068200050b280000000d1004005b000361d0700c6
:1068300080407800f06a21000000440001487800a0
:1068400050b280000004e80050b280000000d10087
:106850004005b0002c1d07004800de008040780095
:10686000f06a2100000044000148780050b2800026
:106870000080e80050b2880050b28000e90f50005c
:10688000e6ff3600900520001f1d070040ba880073
:10689000a00520001c1d070060ba8800b00520007c
:1068a000191d070070ba8800c0052000161d0700da
:1068b00080ba88000000eb0050b288001700370053
:1068c00058b2800050b280000000d100d005b00066
:1068d0000d1d070080407800506c2100000044002e
:1068e0000148780050b280000004e80050b28000f7
:1068f0000000d100d005b000031d07004800de00f5
:1069000080407800506c210000004400014878006d
:1069100050b280000080e80050b2880050b2800081
:10692000fd0f5000e6ff36004f0478000080fa00ab
:10693000000006000000fa008bd6bf008080fb003c
:106940008cd6bf000080fb004800dd0000804000c6
:10695000210020003b1d07008dd6bf008080fb007a
:106960008ed6bf000080fb004800dd0000804000a4
:1069700031002000331d070050ba80006100200064
:10698000301d07000000eb0050b2880015003700f2
:1069900050b280000000d100e701400051b28000f9
:1069a0006068210000804000104078000001fb007a
:1069b00050b280008000e800606821000080400044
:1069c000104078000000fb004800dd00000041009e
:1069d000830078001b1d070050b280000080e80093
:1069e00050b2880050b28000e30f5000e8ff36003c
:1069f0000000eb0050b288001500370050b2800054
:106a00000000d100e901400051b280000080200068
:106a100000804000104078000001fb0050b2800070
:106a20008000e800008020000080400010407800d6
:106a30000000fb004800dd000000410083007800fa
:106a4000001d070050b280000080e80050b28800ae
:106a500050b28000e90f5000e8ff36000000eb0064
:106a600050b288001500370050b280000000d100fd
:106a7000ee01400051b28000b08020000080400054
:106a8000104078000001fb0050b280008000e80058
:106a9000b080200000804000104078000000fb0023
:106aa0004800dd000000410083007800e51c07007d
:106ab00050b280000080e80050b2880050b28000e0
:106ac000e90f5000e8ff36000000eb0050b28800ec
:106ad0001500370050b280000000d100f3014000e3
:106ae00051b280006081200000804000104078009a
:106af0000001fb0050b280008000e80060812000af
:106b000000804000104078000000fb004800dd00dd
:106b10000000410083007800ca1c070050b28000ca
:106b20000080e80050b2880050b28000e90f5000a9
:106b3000e8ff36000000eb0050b288001500370077
:106b400050b280000000d100f801400051b2800036
:106b5000f068210000804000104078000001fb0038
:106b600050b280008000e800f06821000080400002
:106b7000104078000000fb004800dd0000004100ec
:106b800083007800af1c070050b280000080e8004e
:106b900050b2880050b28000f30f5000e8ff36007a
:106ba0000000eb0050b288001600370050b28000a1
:106bb0000000d100230220008081410051b28000fa
:106bc000406e210000804000104078000081fb00f2
:106bd00050b280008000e800406e2100008040003c
:106be000104078000080fb004800dd0000004100fc
:106bf00083007800931c070050b280000080e800fa
:106c000050b2880050b28000e90f5000e7ff360014
:106c10000000eb0050b288001600370050b2800030
:106c20000000d100730220008081410051b2800039
:106c3000e06e210000804000104078000081fb00e1
:106c400050b280008000e800e06e2100008040002b
:106c5000104078000080fb004800dd00000041008b
:106c600083007800771c070050b280000080e800a5
:106c700050b2880050b28000e90f5000e7ff3600a4
